:020000040800F2
:10000000300700208901000881150008C913000885
:10001000E11400087F0300088317000800000000B7
:10002000000000000000000000000000A51500080E
:100030000D040008000000008B150008A71500083B
:10004000A3010008A3010008A3010008A301000800
:10005000A3010008A3010008A3010008A3010008F0
:10006000A3010008A3010008A3010008A3010008E0
:10007000A3010008A3010008A3010008A3010008D0
:10008000A3010008A3010008A3010008A3010008C0
:10009000A3010008810300088D030008A3010008E4
:1000A000A3010008A3010008A3010008A3010008A0
:1000B000A3010008A3010008A3010008A301000890
:1000C000A3010008A3010008A3010008A301000880
:1000D000A3010008A3010008A3010008A301000870
:1000E000A3010008A3010008A301000800F002F822
:1000F00000F03AF80AA090E8000C82448344AAF188
:100100000107DA4501D100F02FF8AFF2090EBAE885
:100110000F0013F0010F18BFFB1A43F0010318473B
:10012000301C0000501C0000103A24BF78C878C171
:10013000FAD8520724BF30C830C144BF04680C60ED
:10014000704700000023002400250026103A28BF35
:1001500078C1FBD8520728BF30C148BF0B60704739
:100160001FB51FBD10B510BD00F0CFF81146FFF749
:10017000F7FF01F017FB00F0EDF803B4FFF7F2FF13
:1001800003BC00F0F5F80000094880470948004723
:10019000FEE7FEE7FEE7FEE7FEE7FEE7FEE7FEE737
:1001A000FEE7FEE704480549054A064B7047000094
:1001B00007160008ED00000830010020300700207D
:1001C0003003002030030020032A40F2308010F07A
:1001D000030C00F0158011F8013BBCF1020F6244E2
:1001E00098BF11F801CB00F8013B38BF11F8013B73
:1001F000A2F1040298BF00F801CB38BF00F8013B20
:1002000011F0030300F04F80083AC0F0088051F865
:10021000043B083A51F804CBA0E80810F5E7121D9A
:100220005CBF51F8043B40F8043BAFF30080D207B9
:1002300024BF11F8013B11F801CB48BF11F8012B85
:1002400024BF00F8013B00F801CB48BF00F8012BA8
:1002500070474FF0000200B5134694469646203989
:1002600022BFA0E80C50A0E80C50B1F12001BFF46F
:10027000F7AF090728BFA0E80C5048BF0CC05DF8D5
:1002800004EB890028BF40F8042B08BF704748BF23
:1002900020F8022B11F0804F18BF00F8012B704797
:1002A00070477047704710B5203AC0F00B80B1E836
:1002B0001850203AA0E81850B1E81850A0E818509B
:1002C000BFF4F5AF5FEA027C24BFB1E81850A0E8A4
:1002D000185044BF18C918C0BDE810405FEA827CBE
:1002E00024BF51F8043B40F8043B08BF7047D207D5
:1002F00028BF31F8023B48BF11F8012B28BF20F876
:10030000023B48BF00F8012B7047754600F02CF8FF
:10031000AE4605006946534620F00700854618B0F2
:1003200020B5FFF73FFFBDE820404FF000064FF03B
:1003300000074FF000084FF0000B21F00701AC461A
:10034000ACE8C009ACE8C009ACE8C009ACE8C00939
:100350008D46704710B50446AFF300802046BDE8D7
:100360001040FFF70ABF000000487047D00000208F
:1003700001491820ABBEFEE7260002007047FEE7E9
:10038000014800F0E6B8000018000020014800F025
:10039000E0B80000180000202DE9FC411C460B4687
:1003A00002278DF800708DF8010080EA0301032018
:1003B000DDE908568DF8040051408DF802308DF8C3
:1003C00003208DF80510012001F0E0F833460622E5
:1003D00069460D4800F0A8FF002001F0D7F8334629
:1003E0002A462146084800F047FF38B920780228FD
:1003F00004D1601910F8020C032802D00120BDE8D6
:10040000FC810020FBE7000088000020704772B6E6
:10041000FEE7000030B51B4A85B0642410705170AF
:100420000A210123052814D2DFE800F00307090C94
:100430000F001E20508093800BE0322003E0548098
:10044000918006E0C8205080FAE74FF4C8705080D1
:100450009480002002900C48816941F00401816180
:100460008069694600F0040004900820CDE900038B
:1004700002200390054800F05BFA002001F086F8A6
:1004800005B030BD100000200010024000080140FF
:1004900000B50C4887B04178C82051B10621CDE99C
:1004A0000010A02102AB03220846FFF775FF07B03A
:1004B00000BD0090082302AA0621034801F012F8AB
:1004C000F5E7000010000020321D0008F0B51D4CBB
:1004D00087B00746617802ADC82061B10621CDE939
:1004E00000102B460122B0214320FFF755FF68B1D1
:1004F000012007B0F0BD009007232A4606211248CC
:1005000000F0F0FF0028F3D1E81C00E0A81C01F087
:1005100038F80546A08801F09FFA0646284601F003
:1005200083FA314601F0ACFA084901F0BBF90546FF
:10053000608801F091FA294601F052F938600020F4
:10054000D7E70000100000202C1D000800007A44AE
:1005500070472DE9F05F0546006800244669D0F831
:1005600004908768D0F80CB0D0F810A0D0F81880AC
:10057000F10748D0F90714D001218160B80703D5ED
:10058000284600F0BDF90CE0780702D54FF400646E
:1005900007E0380702D54FF4805402E0284600F007
:1005A000AEF9F80516D529684FF480708860B80553
:1005B00003D5284600F0A6F90CE0780502D544F4EE
:1005C000005407E0380502D544F4804402E0284690
:1005D00000F097F9F80316D529684FF48030886049
:1005E000B80303D5284600F08FF90CE0780302D554
:1005F00044F4004407E0380302D544F4803402E0B8
:10060000284600F080F9300707D55FEACB6004D5B3
:100610002968102044F40074C86070074FF0080780
:1006200007D55FEA0B7004D52868C760284600F03C
:1006300061F9B00706D52868C068800702D028464F
:1006400000F059F9700607D55FEACA6004D5296839
:10065000102044F480640861B00607D55FEA0A7090
:1006600004D528680761284600F046F9F00606D54B
:1006700028680069800702D0284600F03EF9B003E0
:1006800008D55FEAC96005D529681020486028466A
:1006900000F034F9F00307D55FEA097004D5286843
:1006A0004760284600F031F9300446D55FEA4970CA
:1006B00040D5F00504D55FEAC87001D044F00104CC
:1006C000B00504D55FEA887001D544F002047005D6
:1006D00004D55FEA487001D544F00404300529D5FB
:1006E00018F0700F26D008F07000402815D006DCF6
:1006F000102809D020280AD0302816D10AE0502826
:100700000ED0602811D10EE044F008040DE044F052
:1007100010040AE044F0200407E044F0400404E040
:1007200044F0800401E044F480742868816921F079
:1007300070018161296804204860002C05D0686A36
:10074000204368622846FFF703FFBDE8F09F70B5BD
:10075000040003D094F8200010B104E0012070BD23
:10076000204600F081F82068016841F00101016035
:1007700000F0D4F90546052604E000F0CFF9401B4F
:100780000A2811D820684068C007F6D020680168A0
:1007900021F00201016000F0C1F905460BE000F014
:1007A000BDF9401B0A2806D9606A40F40030606237
:1007B00084F82060D2E7206840688007EFD4207E6C
:1007C0000128206801683DD021F080010160607E31
:1007D00001282068016838D021F040010160A07E26
:1007E00001282068016833D021F020010160E07EFB
:1007F0000128206801682ED041F010010160207F9F
:1008000001282068016829D021F008010160607F7B
:1008100001282068016824D021F004010160D4E996
:1008200002010843D4E90412114308436168491ED8
:1008300008432168C86100206062012084F820001C
:10084000002070BD41F08001C0E741F04001C5E7E4
:1008500041F02001CAE721F01001CFE741F0080183
:10086000D4E741F00401D9E710B586B0002100912A
:1008700001910291039100681B49884232D11B48C3
:10088000C16941F00071C161C16901F00071049159
:10089000816941F0040181618069154C00F0040018
:1008A00004904FF4006000906946204600F040F844
:1008B000A014009002200190032003906946204676
:1008C00000F036F800221146152000F093F91520AB
:1008D00000F082F900221146162000F08BF9162054
:1008E00000F07AF906B010BD00640040001002402C
:1008F0000008014070477047704770477047704765
:1009000070477047704770477047704770B504462E
:1009100000F004F90546601C02D004480078044445
:1009200000F0FCF8401BA042FAD370BD000000208C
:100930002DE9F84FDFF8B8910024A9F1040B234604
:100940000F2709F1040AABF1040EC9E00125A54007
:100950002A40AA427DD1674ED1F804C0ACEB06080C
:10096000B44532D014DCBCF1030F3AD009DCBCF141
:10097000000F2AD0BCF1010F1CD0BCF1020F31D105
:100980001DE0BCF1110F17D0BCF1120F2AD119E0F4
:10099000B8F5881F19D006DCB8F5803F15D0B8F53A
:1009A000801F1FD111E0B8F5001F0ED0B8F5041F4D
:1009B00018D10AE0CB6815E0CB681B1D12E0CB68AC
:1009C00008330FE0CB680C330CE08B682BB1012BA4
:1009D0004FF0080303D0456104E0042302E0056101
:1009E00000E00023FF2A01D8064601E000F10406DA
:1009F0004FEA840501D9A5F12005D6F8008007FA51
:100A000005FC28EA0C0803FA05F548EA0508C6F8CB
:100A100000804D68ED0062D5374DAE6946F00106A5
:100A2000AE61AD6924F0030605F001050095334D74
:100A300006EB050CDCF80850A607360F07FA06F897
:100A400025EA0805DFF8B880404503D14FF00008DB
:100A500017E044E0DFF8AC80404502D14FF00108D8
:100A60000FE0DFF8A480404502D14FF0020808E013
:100A7000DFF89880404502D14FF0030801E04FF0C5
:100A8000040808FA06F848EA0508CCF808804D681A
:100A9000D9F80060ED024D4601D5164300E09643BB
:100AA0002E604D68DAF80060AD02554601D5164358
:100AB00000E096432E604D68DBF80060AD035D46B4
:100AC00001D5164300E096432E604D68DEF80060C5
:100AD000ED03754601D5164300E096432E60641C75
:100AE0000D682A46E5407FF431AFBDE8F88F00007D
:100AF00008040140000011100010024000000140F5
:100B000000080140000C01400010014000140140A9
:100B10000AB1016170470904FBE7000001488068E1
:100B200070470000000000200248816802781144EC
:100B30008160704700000020074810B5016841F04F
:100B400010010160032000F075F80F2000F006F896
:100B500000F024F8002010BD0020024070B50D4DBB
:100B600004464FF47A712878B1FBF0F00A4909681D
:100B7000B1FBF0F000F0DCFA48B9102C07D20022EB
:100B80002146501E00F036F800206C6070BD012038
:100B900070BD0000000000200C0000200C4808B5CB
:100BA000816941F001018161816901F001010091D8
:100BB000C16941F08051C161C06900F0805000906E
:100BC0000448416821F0E06141F00071416008BDD6
:100BD0000010024000000140002809DB00F01F0265
:100BE000012191404009800000F1E020C0F800118F
:100BF00070470000F0B40E4B1B680C46C3F3022391
:100C0000C3F10705042D00D90425191D072901D2B8
:100C1000002300E0DB1E012606FA05F1491E2140F3
:100C200099409E40761E16403143F0BC00F0AABDAC
:100C30000CED00E0064900F0070208684FF6FF03DC
:100C4000184040EA0220034A104308607047000041
:100C50000CED00E00000FA052DE9F0470F46050015
:100C600061D0434E306800F00700B84209D23068C6
:100C700020F0070038433060306800F00700B842C9
:100C800051D128683B4C810712D5400703D56068D5
:100C900040F4E06060602878000703D5606840F4A5
:100CA000605060606068A96820F0F00008436060F0
:100CB0002878C00728D06868012810D02168022849
:100CC00010D0890700292EDA616821F00301014361
:100CD0006160FFF723FF804641F288390DE021680B
:100CE0008903EFE78901EDE7FFF718FFA0EB0801A3
:100CF000494502D90320BDE8F0876068696800F0C3
:100D00000C00B0EB810FEFD1306800F00700B84263
:100D10000BD9306820F0070038433060306800F0AD
:100D20000700B84201D00120E5E72878400705D543
:100D30006068E96820F4E060084360602878000794
:100D400006D56068296920F4605040EAC1006060FF
:100D500000F038F86168084AC1F30311515CC840DB
:100D60000649086006480068FFF7F8FE0020C2E761
:100D70000020024000100240141D00080C0000205A
:100D8000040000200448054900684968044AC1F38A
:100D90000221515CC84070470C0000200010024046
:100DA000241D00080448054900684968044AC1F345
:100DB000C221515CC84070470C0000200010024066
:100DC000241D00080E4A51680E4801F00C03042B44
:100DD00011D0082B0FD10C48C1F38343C903C05C69
:100DE0000AD55168084AC1F34041921E515C054A38
:100DF0005043B0FBF1F0704704494843704700008E
:100E00000010024000127A00041D000800093D0095
:100E10002DE9F84F040070D02078C04DC00749D0AC
:100E20006868C0F38100012807D06868C0F38100BA
:100E3000022809D16868C00306D52868800339D51F
:100E400060680028E7D035E06068B0F5803F0BD0DF
:100E500010B1B0F5A02F11D0286820F480302860A0
:100E6000286820F4802002E0286840F48030286060
:100E7000606890B1FFF752FE06460AE0286840F429
:100E800080202860F0E700BFFFF748FE801B642841
:100E900073D828688003F7D50CE0FFF73FFE0646BD
:100EA00005E000BFFFF73AFE801B6428F0D82868F1
:100EB0008003F7D420789A4E80074FF001094FF055
:100EC000000839D5686810F00C0F07D06868C0F3C7
:100ED0008100022809D16868C00306D42868800709
:100EE00014D52069012808D110E02069B0B1C6F8F6
:100EF0000090FFF713FE074605E00AE1FFF70EFE3C
:100F0000C01B0228C4D828688007F7D52868616903
:100F100020F0F80040EAC10028600DE0C6F800802B
:100F2000FFF7FCFD074604E0FFF7F8FDC01B0228B1
:100F300023D828688007F7D4207800072CD5794873
:100F4000A169D9B1C0F80090FFF7E8FD074604E0B9
:100F5000FFF7E4FDC01B02280FD8686A8007F7D5A9
:100F600071484FF4FA510068B0FBF1F0009000BFF7
:100F70000098411E0091FAD20EE080E0C0F8008097
:100F8000FFF7CCFD074604E0FFF7C8FDC01B0228B1
:100F900075D8686A8007F7D42078400760D5E8697B
:100FA0000027C00008D4E86940F08050E861E86993
:100FB000012700F0805000905C480168C90513D4F7
:100FC0000168834641F480710160FFF7A7FD824606
:100FD00006E000BFFFF7A2FDA0EB0A0064284ED890
:100FE000DBF80000C005F5D5E06801280AD008B19B
:100FF000052813D0286A20F001002862286A20F012
:10100000040002E0286A40F001002862E06841F232
:10101000883B98B1FFF782FD82460BE0286A40F0DA
:1010200004002862EEE700BFFFF778FDA0EB0A019D
:1010300059455AD8286A8007F6D50CE0FFF76EFDAF
:10104000824605E0FFF76AFDA0EB0A0159454CD83E
:10105000286A8007F6D41FB1E86920F08050E86163
:10106000E06988B36968C1F38101022944D002288C
:10107000C6F8608004D0FFF751FD044638E034E044
:10108000FFF74CFD074604E0FFF748FDC01B0228B0
:101090002BD828688001F7D4206AB0F5803F05D1AD
:1010A0006868A16820F4003008436860D4E908014A
:1010B0000843696821F4741108436860C6F86090B9
:1010C000FFF72CFD044606E025E000BFFFF726FDF4
:1010D000001B022809D828688001F7D51BE000BF53
:1010E000FFF71CFD001B022802D90320BDE8F88F82
:1010F00028688001F4D40EE00128F7D06868226ADD
:1011000000F48031914204D1616A00F47010884289
:1011100001D00120EAE70020E8E7000000100240CB
:1011200000004242800442420C0000200070004057
:1011300010B5401EB0F1807F01D3012010BD4FF0EB
:10114000E02460610F21601700F01CFB0020A0610B
:1011500007202061002010BD70B5040004D094F871
:101160004100002510B106E0012070BD84F8405018
:10117000204600F023F8242084F841002068C1684C
:1011800021F40051C160204600F066FA2068016930
:1011900021F4904101612068416921F02A014161F7
:1011A0002068C16841F40051C1606564202084F862
:1011B000410084F842006563002070BD70B586B0C0
:1011C0000024009401940294039403682648254E59
:1011D000022103220515B3421ED1836943F48043E3
:1011E0008361836903F480430493836943F00403B8
:1011F000836180691D4E00F0040004900802CDE96F
:101200000001039269463046FFF792FBCDE9005496
:1012100069463046029420E0154EB3421FD1C3699F
:1012200043F48023C361C36903F480230493836977
:1012300043F0080383618069CDE9005100F00800A4
:10124000CDE903200B4D69462846FFF771FBE814F2
:10125000CDE90004694628460294FFF769FB06B011
:1012600070BD00000038014000100240000801403D
:1012700000480040000C01402DE9F84F044690F86A
:1012800042009A4616460D46202802D00220BDE8AC
:10129000F88FB5B1AEB100206064222184F842100D
:1012A0002063FFF73BFCA6858146E685A0684FF4E6
:1012B00080582027404501D1206920B12E460025C5
:1012C00029E00120E3E7002625E04B46002220210B
:1012D0002046CDF800A000F01BFA18B184F8427047
:1012E0000320D4E726B1A06840451AD038B108E001
:1012F00020684068C0F3080025F8020B08E0206968
:1013000078B12068406800F07F0000BF06F8010B4C
:10131000E08D401EE085E08D0028D6D184F8427033
:10132000B5E720684068F1E72DE9F843044690F8F6
:101330004100984616460D46202802D00220BDE8FE
:10134000F88385B17EB100206064212084F84100DB
:10135000FFF7E4FBA6848146E684A0682027B0F569
:10136000805F02D003E00120E9E7206910B12E463A
:1013700000250EE000260CE08021204600F0C8F990
:10138000A8B9C6B116F8010B21684860E08C401E70
:10139000E084E08C4B464FF00002CDF8008000283E
:1013A000EAD14FF04001204600F0B2F940B184F894
:1013B00041700320C3E735F8020BC0F30800E3E7F0
:1013C00084F841700020BAE7FEE700000F4810B52E
:1013D0000D4901600421416000214FF440228160E9
:1013E000C0E903124FF480124261017641768176A2
:1013F000C17601774177FFF7AAF9002803D0BDE84D
:101400001040FFF704B810BD006400401800002031
:1014100030B585B0002414480094019402940394DC
:10142000816941F004018161816901F00401049145
:10143000816941F00801816180690C4D00F008006C
:101440000490002208212846FFF762FB0820009044
:101450000120CDE901040220039069462846FFF7E8
:1014600067FA05B030BD00000010024000080140DE
:101470000C4810B50A4901604FF4E1314160002188
:1014800081600C22C160C0E904128161C161FFF773
:1014900063FE002803D0BDE81040FEF7B8BF10BDC2
:1014A00000380140400000200C4810B50A49016096
:1014B0004FF4E1314160002181600C22C160C0E93C
:1014C00004128161C161FFF747FE002803D0BDE827
:1014D0001040FEF79CBF10BD00480040880000206F
:1014E000FEE700002DE9F04389B08E1CDDF8409046
:1014F000984617460C460546202E38D80A4601461F
:101500006846FEF761FE4FF6FF7000214AF20103C4
:101510000EE06A5C504000225FEAC07C4FEA500057
:1015200000D05840521CD2B2082AF5D3491C89B2C7
:101530002246A142EDD30DF804000DEB0201000A92
:101540004870012000F022F8B2B24B4669460B48C1
:10155000FFF7EAFE002000F019F84B4642463946F4
:101560000648FFF789FE10B93878012803D001201A
:1015700009B0BDE8F0830020FAE7000088000020F1
:10158000FEE7008840BA00B270477047044B08B1CC
:10159000012200E0002208211846FFF7B9BA000036
:1015A000000801407047FFF7BFBA30B58FB028215F
:1015B0006846FEF74EFE14210AA8FEF74AFE0225F1
:1015C0000120049000951020059000244FF4601035
:1015D000CDE9084007956846FFF71AFC08B172B6D6
:1015E000FEE70F20CDE90A054FF48060CDE90C40FD
:1015F00002210AA80E94FFF72FFB002801D072B633
:10160000FEE70FB030BD704701680C3151E8002F84
:1016100022F4907241E80023002BF5D101681431C7
:1016200051E8002F22F0010241E80023002BF5D100
:10163000016B012909D101680C3151E8002F22F01A
:10164000100241E80023002BF5D1202180F8421040
:10165000002101637047000070B50446006801690D
:10166000E26821F44051114301612169A0680843F7
:10167000616908432168CA6841F20C639A430243D6
:10168000CA6020684169A26921F440711143416137
:101690001E492068884202D1FFF784FB01E0FFF772
:1016A00071FB00EBC00101EB001260686421800057
:1016B000B2FBF0F3B3FBF1F36FF018067343B2FB28
:1016C000F0F5B2FBF0F605EB8305322303EB0515CD
:1016D000B5FBF1F5B6FBF1F605F0F00505EB0615E7
:1016E000B2FBF0F6B2FBF0F0B0FBF1F06FF01802D5
:1016F000504306EB800003EB0010B0FBF1F02168D3
:1017000000F00F002844886070BD000000380140E0
:101710002DE9F843984617460D460446089E24E0F6
:10172000701C22D0FFF7FAF9A0EB0800B0421AD8DB
:10173000CEB12068C168490717D5802D15D0402D3E
:1017400013D00168C94309070FD401680025406818
:1017500000902046FFF758FF0820606484F840504E
:101760000120BDE8F8830320FBE72068006835EA24
:10177000000004D00020B842D2D00020F1E70120C0
:10178000F9E7FEE70907090E002804DB00F1E02075
:1017900080F80014704700F00F0000F1E02080F89E
:1017A000141D704708B5FFF7C7F9FFF7FEFEFFF7F6
:1017B0002FFEFFF70BFEFFF75BFEFFF775FE002124
:1017C0000220FEF727FEFEF763FE4FF4FA7000BF1B
:1017D000FFF79CF86846FEF779FE6420F8E7000002
:1017E00090EA010F48BF81F0004100F11C82421ACB
:1017F0003CBF801A89184FEAD0524FF07F4C1CEA48
:10180000410FA2EBD15318BF9CEA026F00F03B805E
:101810004FF0004C4CEA00204CEA012121FA03FC75
:1018200010EB0C0C1ED202F1FF325FEA1C2040EBE1
:10183000C25038BF70471CF07F0F4FEA400C18BFF2
:10184000BCF17F4F38BF7047C3F12003994008BFF8
:1018500020F00100BCF17F4F38BF7047A0F1C040BD
:1018600000F0D5B94FEA3C00000A40EBC25028BF57
:101870001CF0FF0F4FEA400CE6D018BFBCF17F4FC1
:1018800038BF7047EAE79CEA026F05D010EA5C0FA8
:1018900008BF00F00040704710B500F072F900BFBB
:1018A00064FBBE3E4FF47F0C1CEAD0121EBF1CEA44
:1018B000D11392EA0C0F93EA0C0F00F0858090EAA6
:1018C000010F48BF42F4807240F4000C41F4000064
:1018D0002CF07F4120F07F4000B58142A2EB030253
:1018E0000FF2081CACEB504EC0F100009EF800E077
:1018F0004FEA4E0E00FB0EFC38BF49004FEA2C1C8D
:1019000002F5FA020CFB0EF34FEACE1E4FEA112C41
:101910004FEAC1210EEB635E42EB22420EFB0CFC50
:101920004FEA1C5300FB03114FEA112C4FEA01311F
:101930000EFB0CFC4FEADC4C00FB0C11C14228BF33
:1019400009184CEB03335DF804EB10EB410143EB5A
:10195000C250B2F57C0F38BF704729D512F0F00F96
:101960001CBF00F1C04000F000407047008182833E
:101970008485868788898B8C8D8E8F91929395969E
:1019800097999A9C9D9FA0A2A3A5A7A8AAACAEB028
:10199000B2B3B5B7B9BCBEC0C2C5C7C9CCCED1D42D
:1019A000D7D9DCDFE2E6E9ECF0F3F7FAFE0000005D
:1019B0004FEA400C0CF1807CBCF17E4F28BF704791
:1019C000B0F1C04000F023B990EA010F0CEAD11346
:1019D00048BF42F48072624538BF634507D213F4B2
:1019E0007F0F16D080EA010000F00040704710B56C
:1019F00000F0C7F8097EFC3E00F005B880EA01005F
:101A000000F00040704780EA010000F0004000F064
:101A1000FEB812F47F0F04BF0248704780EA01004D
:101A200000F0F5B80000C07F10F0004148BF404210
:101A3000B0FA80F310FA03F2C3F19D030BD051EA20
:101A4000C35101EB1220530638BF704700F101006B
:101A500008BF20F001007047B0FA80F310FA03F2DB
:101A6000C3F19D030AD0D90501EB1220530638BFFC
:101A7000704700F1010008BF20F00100704700002E
:101A80004FF47F0C1CEAD0121EBF1CEAD11392EA5D
:101A90000C0F93EA0C0F00F0478090EA010F48BF4B
:101AA00042F480724FF0004C4CEA00204CEA0121D5
:101AB00002EB0302A0FB0113A2F50002002918BFEC
:101AC00043F001035B0028BF4FEA330342EB22429D
:101AD0005FEA132C4CEBC2502EBFBCEB436FB2F548
:101AE0007C0F70474FEA036CBCF1004F08BF20F039
:101AF0000100B2F57C0F38BF70470BD582F0FF02B2
:101B000012F5803FC8BF704700F1C040D8BF00F059
:101B10000040704700F5000C5FEA4C0C48BF70476E
:101B2000B0F1C04000F073B890EA010F0CEAD11395
:101B300048BF42F48072624538BF634504D280EAF0
:101B4000010000F00040704710B500F01AF800BF27
:101B50008900013E00F007B800F009B85FEA410CC7
:101B60005FEA1C6C08D080EA010000F050B85FEA20
:101B7000400C5FEA1C6CF6D14FF00040A0F58000ED
:101B800070470EF1020E2EF0030E5EF8044B244255
:101B900004D44FEA4102B2F17F4F11D84FEA40031B
:101BA000B3F17F4F0CD80ED14FEAD07CB2F17F4F0A
:101BB0000CEB4C0C0CF1020C08BF4CEBD17C04E09C
:101BC0004FF0080C01E04FEAD17C0CEB4C0324FAF7
:101BD00003F404F00704B4F1040C06D20EEB840CF9
:101BE000BDE810404CF0010C6047DFE80CF007083E
:101BF00002024FF00040A0F5800010BD08464200F0
:101C000018BFD2F1807288BF00F0004010BDFF21E4
:101C100041EAD050C005704790EA010F48BF81F0FB
:101C200000413FF5E4AD421A04D882F00042A0EB37
:101C3000020011444FEAD0524FF07F4C1CEA410F92
:101C4000A2EBD15318BF9CEA026F4AD04FF0004C70
:101C50004CEA00204CEA012121FA03FCB0EB0C0C09
:101C60000FD412F0FE0F36D05FEA4C001DD50012E3
:101C700040EBC25038BF70471CF03F0F18BF704791
:101C80000BE0A2F101025FEA1C2040EBC25038BF1A
:101C900070471CF07F0F18BF7047C3F120039940B5
:101CA00014BF401E20F00100704780084FEA122345
:101CB00008BF7047B0FA80FCA2EB0C02CCF1280CF4
:101CC00060FA0CF093EA122F04BF00EBC250704789
:101CD0004FEAC3707047130A5FEADC1008BF704711
:101CE000F6E79CEA026F04D010EA5C0F08BF002000
:101CF000704710B5FFF745FF40DFF63E81F000402A
:101D00007047010202030405060708090A0B0C0DBF
:101D10000E0F10100000000000000000010203047C
:101D20000607080900000000010203040104006422
:101D30000001010507D6FF00010507D600000105D7
:101D400007D7FF00010507D70000010507D30000F2
:101D5000701D000800000020180000002801000885
:101D6000881D000818000020180700004401000822
:101D700001000000100000000000000000127A00C6
:081D800000001E00010000003C
:04000005080000ED02
:00000001FF
